:100000000C943B000C944D000C944D000C944D004E
:100010000C944D000C944D000C944D000C944D002C
:100020000C944D000C9428020C944D000C944D003F
:100030000C944D000C944D000C944D000C944D000C
:100040000C944D000C944D000C9473020C944D00D4
:100050000C944D000C944D000C944D000C944D00EC
:100060000C944D000C944D00910294029802A2024F
:10007000A702AC02B10211241FBECFEFD8E0DEBF51
:10008000CDBF21E0A0E0B1E001C01D92AE30B207CB
:10009000E1F70E94C4020C948C0B0C9400009C01AC
:1000A000261B370B2B30310530F09B01281B390BF9
:1000B0002B30310528F4860F971F96958795089564
:1000C0006817790708F4CB010895E0E0F0E08FEFBE
:1000D0009FEFF7FD1AC024918227282F2295282709
:1000E000022E269526952025022E2695202527705E
:1000F000082E892F269507942795902D8227069400
:100100002795902582273196E4CF089512BC11BC23
:10011000F89A20B581E090E092BD81BDF89A80B553
:1001200090E0922B0895F999FECF12BC11BC90BDBE
:10013000FA9AF99AF999FECF21E030E032BD21BD5B
:1001400080BDFA9AF99A0895529A53985B9885E07F
:1001500085BD08955A9A8AE68A95F1F700C05A98A3
:1001600084E60E94A5034B990CC08091020188236C
:1001700019F08FEF9FEF089585E08A95F1F7000061
:10018000F2CF16BC84E60E94A5034B9B09C0809168
:1001900002018111EECF85E08A95F1F70000F5CFDD
:1001A00066B570E080E090E00E94140A2DEC3CEC13
:1001B0004CE85FE30E94A10A0E94E309CB01089585
:1001C00080E28093B80010920301089584EA80933E
:1001D000BC008EE10E94A5038091BC0087FD0AC08F
:1001E00080910201882321F081E08093030108952A
:1001F0000000F2CF08958093BB0084E88093BC0098
:100200008EE10E94A5038091BC0087FD0AC0809109
:100210000201882321F081E080930301089500000A
:10022000F2CF089584EC8093BC008EE10E94A50378
:100230008091BC0087FD0BC080910201882329F0CA
:1002400081E0809303018FEF08950000F1CF80914A
:10025000BB00089584E88093BC008EE10E94A50352
:100260008091BC0087FD0BC080910201882329F09A
:1002700081E0809303018FEF08950000F1CF109289
:1002800003018091BB0008951F93CF93DF93182F34
:10029000D62FC42F109203010E94E600812F880FF1
:1002A0000E94FB008D2F0E94FB008C2F0E94FB0000
:1002B00084E98093BC00DF91CF911F910895CF9383
:1002C000DF93C82FD62F109203010E94E600CC0FB7
:1002D0008C2F0E94FB008D2F0E94FB000E94E600E5
:1002E00081E08C0F0E94FB000E942A0194E9909308
:1002F000BC00DF91CF9108950F931F93CF93DF93AD
:10030000082F162FEA01109203010E94E600802FA9
:10031000880F0E94FB00812F0E94FB008D2F0E94FE
:10032000FB008C2F0E94FB0084E98093BC00DF91CE
:10033000CF911F910F910895CF93DF93C82FD62FA0
:10034000109203010E94E600CC0F8C2F0E94FB004C
:100350008D2F0E94FB000E94E60081E08C0F0E941E
:10036000FB000E941201C82FD0E0DC2FCC270E9496
:100370002A0194E99093BC009E01282BC901DF91CA
:10038000CF910895FF920F931F93CF93DF93D82FB0
:10039000C62FF42E052F122F109203010E94E600A3
:1003A0008D2F880F0E94FB008C2F0E94FB00CF2D09
:1003B000D02FCE01810F911D8C01C017D10721F0E4
:1003C00089910E94FB00F9CF84E98093BC00DF9102
:1003D000CF911F910F91FF900895EF92FF920F938D
:1003E0001F93CF93DF93182FC62F7A01D22F10922D
:1003F00003010E94E600110F812F0E94FB008C2F49
:100400000E94FB000E94E60081E0810F0E94FB0039
:1004100087012D2F30E0E9012197C8018E199F092E
:100420008C179D0734F40E941201F80181938F010B
:10043000F4CFCE0DDF1D0E942A01888384E98093CA
:10044000BC00DF91CF911F910F91FF90EF90089525
:100450001F920F920FB60F9211248F939F9380914A
:10046000000190910101009731F0019790930101F3
:100470008093000103C081E0809302019F918F91DE
:100480000F900FBE0F901F9018950F931F93CF934F
:10049000DF930E9465008C010E948600EC01CF3F33
:1004A0008FEFD80719F4C8010E9493000C171D079D
:1004B00011F088EC0BC00E94AA000E9415040E9453
:1004C000430480910301882329F087EC0E94BD0337
:1004D00080E004C080EA0E94BD0381E0DF91CF91FB
:1004E0001F910F9108951F920F920FB60F92112432
:1004F0002F933F934F935F936F937F938F939F932C
:10050000AF93BF93EF93FF930E94D10390E0FC0160
:10051000E05BF109E730F10530F5EC5CFF4F0C943E
:100520006C0B10920D011FC081E080930D011BC068
:1005300080910D01882311F085EA01C086EA0E94AE
:10054000BD0311C00E94D10380930B010CC00E9417
:10055000D1038093040107C00E94D10380930C0152
:1005600002C00E944502FF91EF91BF91AF919F9110
:100570008F917F916F915F914F913F912F910F904C
:100580000FBE0F901F9018950E94AF030E94E000CD
:100590000E94630381E00E943E070E94A4000E9423
:1005A000940378940E94450280930D0110920B01F0
:1005B00084EB8093040181E080930C01D0E0C1E0E2
:1005C0009AE0E92EF12C80910D01811101C0FFCF3D
:1005D0000E9415040E94AA008C010F3F8FEF18079C
:1005E00021F482EC0E94BD030FC0093C110530F0DC
:1005F00084EC0E94BD030FEF1FEF06C082EA0E9449
:10060000BD03C8010E94C4030E944304B7010E94B5
:10061000360B6B0180910301882339F081EC0E9435
:10062000BD0381E00E943E0719C0693C710558F086
:1006300083EC0E94BD030F3F8FEF180759F0CC24C5
:10064000CA94DC2C0BC081EA0E94BD03C6010E9443
:10065000C40304C085EC0E94BD0309C083EA0E9464
:10066000BD03B601C8010E944F000E94C40384EA82
:100670000E94BD038C2F0E94BD0320910C018C2F82
:1006800090E0DD2339F0821B9109181619064CF40D
:10069000C21B0AC0820F911D843B910524F4C20F36
:1006A00003C0C0E001C0C4EB80910401C81708F08A
:1006B000D1E080910B018C1708F0D0E061E08C2F25
:1006C0000E947B0380CF82EA809380008AE180933E
:1006D000810084B1866084B980E49CE990938700AE
:1006E00080938600109289001092880010928B00EF
:1006F00010928A000895262F38EC839FC0011124A0
:1007000062E170E00E94360B6053784F211105C002
:1007100070938900609388000895213021F47093CC
:100720008B0060938A00089584E08093B100E0E735
:10073000F0E08081816080831092020110920101BB
:10074000109200011092B20008951092020190E000
:1007500090930101809300011092B20008951092CD
:10076000C00088E98093C10086E08093C2001092A7
:10077000C50087E68093C40008959091C00095FF5E
:10078000FCCF8093C60008952091C00025FFFCCFC8
:100790009093C6009091C00095FFFCCF8093C60057
:1007A00008958091C00087FFFCCF8091C600089516
:1007B000CF92DF92EF92FF926B017C0120E030E05C
:1007C000A9010E94DE0987FD1BC028EB3EEF4FEF19
:1007D00053E4C701B6010E949C0A18168CF020E071
:1007E00030E040E053E4C701B6010E94A10A0E9434
:1007F000E309AB0164E489E20E947C0181E001C06D
:1008000080E0FF90EF90DF90CF900895811102C0BB
:1008100060E503C0813039F460E789E20E945F013E
:100820008F5F880F08958FEF089541E060E889E2B7
:100830000E94440180910301811124C041E06FEFC7
:1008400089E20E94440140E060E089E20E944401A4
:100850004091090161E989E20E94440141E060E0C0
:1008600089E20E94440140E06FEF89E20E94440166
:1008700040E060E889E20E94440141E060E089E2F2
:100880000C9444010895CF93DF9360E089E20E94C5
:100890005F019091030180FF02C09923B1F3911190
:1008A00018C063E189E20E945F01877021F48091A2
:1008B00003018823B1F36EE189E20E949C01D82FE5
:1008C000C92F41E06BE089E20E9444018D2F9C2FEB
:1008D00002C08FEF9FEFDF91CF9108950F931F9389
:1008E000CF93DF938C01EB0141E060E889E20E9445
:1008F000440141E06FEF89E20E94440140E060E082
:1009000089E20E94440146E06FEF89E20E944401BF
:1009100063E889E20E945F01482F446063E889E24E
:100920000E94440147E06FEF89E20E94440141E0E8
:1009300061E889E20E94440141E060E889E20E94A6
:1009400044014BE664E989E20E94440140E063E827
:1009500089E20E94440163E889E20E945F018111FB
:1009600004C0809103018823B1F341E063E889E288
:100970000E94440162E989E20E945F01982F9F77FB
:10098000F8019083881F8827881F888340E061E8EA
:1009900089E20E94440146E06FEF89E20E9444012F
:1009A00063E889E20E945F01482F4B7F63E889E298
:1009B0000E94440141E06FEF89E20E94440141E05E
:1009C00060E089E20E94440140E06FEF89E20E940A
:1009D000440140E060E889E20E94440181E0DF9147
:1009E000CF911F910F910895CF93DF93EC0161E0B8
:1009F00089E20E945F0184FB992790F9988383FB29
:100A0000992790F99A8382FB992790F9998386FB1D
:100A1000992790F99B83881F8827881F8C83DF91F3
:100A2000CF9108959C013327A90102C0440F551F9F
:100A30009A95E2F7CA0101960895CF92DF92EF925C
:100A4000FF926115710581059105D1F0DC01CB01A3
:100A50000197A109B10920E030E06C017D01CC24AF
:100A6000CD28CE28CF2839F0B695A79597958795AC
:100A70002F5F3F4FF2CF322F2227822B932B02C0C2
:100A800080E090E0FF90EF90DF90CF900895CF92BC
:100A9000DF92EF92FF92CF93DF93EC01A62FB0E0AD
:100AA00020E03FE24AE350E00E94720B6C507E4F20
:100AB0008F4F9F4F28EEC22E23E0D22EE12CF12C37
:100AC000A70196010E944A0BDE010E94720B6C5036
:100AD0007E4F8F4F9F4FA70196010E944A0BCA017C
:100AE000B901DF91CF91FF90EF90DF90CF90089503
:100AF0000F931F93CF93DF938C01EB0180E00E9453
:100B0000060490E09983888366E489E20E945F018D
:100B100090E001969D838C8368810E9447056A87D7
:100B20007B878C879D8761E589E20E949C010E94FA
:100B300012059F838E8368810E9447056E877F8799
:100B4000888B998B60E789E20E945F018F5F880F35
:100B500090E09B838A8361E789E20E949C010E9466
:100B6000120599878887F8012381222331F02E818D
:100B70003F81821B930B998788876A818885998535
:100B80000E9447056A8B7B8B8C8B9D8BDF91CF916D
:100B90001F910F9108950F931F93CF93DF93CDB7BC
:100BA000DEB76B970FB6F894DEBF0FBECDBFCE0198
:100BB00047960E94F404BE016F5F7F4FCE014796B7
:100BC0000E9478058F89882359F08B859C85AD8597
:100BD000BE85BC01CD016C57724F8F4F9F4F04C033
:100BE00066E37BE080E090E0298D222369F00B85AD
:100BF0001C852D853E850E541D4F2F4F3F4F000FF6
:100C0000111F221F331F0BC0288D222361F00B857B
:100C10001C852D853E850C561D4F2F4F3F4F600F75
:100C2000711F821F931F2A8D222361F00F8518895F
:100C300029893A890C561D4F2F4F3F4F600F711F66
:100C4000821F931F2B8D222361F00B891C892D8914
:100C50003E890A5D1D4F2F4F3F4F600F711F821F4E
:100C6000931F609305017093060180930701909391
:100C700008016B960FB6F894DEBF0FBECDBFDF91B3
:100C8000CF911F910F9108958F929F92AF92BF9233
:100C9000CF92DF92EF92FF924B015C01A42FB0E064
:100CA00020E03FE24AE350E00E94720B6B017C01BE
:100CB00024EFC20E21E0D21EE11CF11CA8EEB3E02D
:100CC000A50194010E94720B4B015C01C701B601A2
:100CD00020ED37E040E050E00E944A0B820E931E68
:100CE000A41EB51EC701B60128EE33E040E050E077
:100CF0000E944A0BC501B4010E944A0BCA01B90106
:100D0000FF90EF90DF90CF90BF90AF909F908F902B
:100D10000895CF92DF92EF92FF921F93CF93DF93CC
:100D2000CDB7DEB76B970FB6F894DEBF0FBECDBF61
:100D30006B017C01CE0147960E94F404BE016F5FF7
:100D40007F4FCE0147960E9478058F89882349F00E
:100D50008B859C85AD85BE858C57924FAF4FBF4F1D
:100D600004C086E39BE0A0E0B0E0298D222369F077
:100D70004B855C856D857E854E545D4F6F4F7F4FF3
:100D8000440F551F661F771F0BC0288D222361F06B
:100D90004B855C856D857E854C565D4F6F4F7F4FD3
:100DA000840F951FA61FB71F1A8D112361F04F8561
:100DB000588969897A894C565D4F6F4F7F4F840FF0
:100DC000951FA61FB71F2B8D222359F18A5D9D4FBA
:100DD000AF4FBF4FC816D906EA06FB0620F1A701A0
:100DE0009601281B390B4A0B5B0BCA01B9014B81D9
:100DF0000E944406112331F02F813885620F731F42
:100E0000811D911D0E941D05AC0161E789E20E94D0
:100E10007C01C0920501D0920601E0920701F09298
:100E2000080181E001C080E06B960FB6F894DEBF48
:100E30000FBECDBFDF91CF911F91FF90EF90DF905C
:100E4000CF900895482F416060E089E20E944401FC
:100E500063E189E20E945F01877021F480910301C0
:100E60008823B1F341E06BE089E20E94440140E055
:100E700060E089E20E94440181E00895CF93DF930E
:100E8000CDB7DEB728970FB6F894DEBF0FBECDBF43
:100E9000882351F069E889E20E945F01482F416090
:100EA00069E889E20E94440140E068E889E20E9422
:100EB000440180910301882311F080E076C241E073
:100EC00060E889E20E94440141E06FEF89E20E94FC
:100ED000440140E060E089E20E94440161E989E266
:100EE0000E945F018093090141E060E089E20E9475
:100EF000440140E06FEF89E20E94440140E060E875
:100F000089E20E94440160E689E20E945F01482F65
:100F1000426160E689E20E94440160E070E080E89E
:100F20009EE30E94D8034FEF61E089E20E944401F2
:100F3000BE01695F7F4FCE0108960E946E04882330
:100F400009F4BBCF26E0AE014F5F5F4F60EB89E253
:100F50000E94ED0141E06FEF89E20E94440140E010
:100F60006FE489E20E9444014CE26EE489E20E944F
:100F7000440140E06FEF89E20E94440144EB66EBDC
:100F800089E20E9444018F81811102C040E001C0CA
:100F90004CE0A88580E090E061E070E0282F269585
:100FA00026952695582F5770E1E0F0E0EC0FFD1FD5
:100FB000E20FF11D841710F0A9130AC09B0101C0B4
:100FC000220F5A95EAF7209530812323208309C008
:100FD000208130E002C0359527955A95E2F720FD33
:100FE0009F5F8F5F8033D1F626E0AE014F5F5F4F8A
:100FF00060EB89E20E94C20141E06FEF89E20E944A
:10100000440140E060E089E20E94440140E06FEF6B
:1010100089E20E94440140E069E089E20E944401C3
:1010200040E060E189E20E94440140E061E189E240
:101030000E94440141E064E289E20E9444014FEFD2
:1010400065E289E20E94440140E065E789E20E948E
:10105000440141E06FEF89E20E9444014CE26EE4FA
:1010600089E20E94440140E068E489E20E94440170
:1010700040E260E389E20E94440140E06FEF89E2D0
:101080000E94440149E060E389E20E94440140E09B
:1010900064E589E20E94440144E061E389E20E9440
:1010A000440143E062E389E20E94440143E860E4D2
:1010B00089E20E94440145E266E489E20E9444011B
:1010C00040E060E689E20E94440140E067E289E294
:1010D0000E94440146E060E589E20E94440140E04C
:1010E00061E589E20E94440146E962E589E20E94E5
:1010F000440148E066E589E20E94440140E367E577
:1011000089E20E94440140E061E689E20E944401D4
:1011100040E062E689E20E94440140E064E689E240
:101120000E94440140E065E689E20E94440140EAF1
:1011300066E689E20E94440141E06FEF89E20E9485
:10114000440142E362E289E20E94440144E167E42F
:1011500089E20E9444014FEF69E489E20E94440160
:1011600040E06AE489E20E94440140E06FEF89E2D6
:101170000E9444014AE06AE789E20E94440140E09B
:101180006BE789E20E94440141E268E789E20E943C
:10119000440141E06FEF89E20E94440144E363E2CD
:1011A00089E20E94440140E062E489E20E94440135
:1011B0004FEF64E489E20E94440146E265E489E27B
:1011C0000E94440145E066E489E20E94440140E453
:1011D00060E489E20E94440146E06EE089E20E94F8
:1011E00044014AE160E289E20E94440140E463E490
:1011F00089E20E94440140E06FEF89E20E944401CD
:1012000043E064E389E20E94440144E465E389E247
:101210000E94440141E06FEF89E20E94440144E0F2
:1012200061E389E20E94440149E06BE489E20E94A3
:10123000440145E06CE489E20E94440144E06DE42D
:1012400089E20E94440140E06FEF89E20E9444017C
:1012500040E064E489E20E94440140E265E489E2FE
:101260000E94440148E067E489E20E94440148E2A8
:1012700068E489E20E94440140E067E689E20E9456
:10128000440144E060E789E20E94440141E061E7F3
:1012900089E20E9444014EEF62E789E20E94440124
:1012A00040E066E789E20E94440140E067E789E2A6
:1012B0000E94440141E06FEF89E20E94440141E055
:1012C0006DE089E20E94440140E06FEF89E20E94F4
:1012D000440141E060E889E20E94440148EF61E096
:1012E00089E20E94440141E06FEF89E20E944401DB
:1012F00041E06EE889E20E94440141E060E089E259
:101300000E94440140E06FEF89E20E94440140E006
:1013100060E889E20E94440144E06AE089E20E94B8
:10132000440164E889E20E945F01482F4F7E64E82F
:1013300089E20E94440141E06BE089E20E9444019D
:101340000E94CB056093050170930601809307010D
:101350009093080148EE61E089E20E9444016091A7
:1013600005017091060180910701909108010E948A
:10137000890641E061E089E20E94440180E40E9424
:101380002207882309F499CD42E061E089E20E94B6
:10139000440180E00E942207882309F48ECD48EEA4
:1013A00061E089E20E94440181E028960FB6F8943A
:1013B000DEBF0FBECDBFDF91CF9108950E944F0ACF
:1013C00008F481E008950E947B0A88F09F5798F006
:1013D000B92F9927B751B0F0E1F0660F771F881F3A
:1013E000991F1AF0BA95C9F714C0B13091F00E9454
:1013F000950AB1E008950C94950A672F782F8827F5
:10140000B85F39F0B93FCCF3869577956795B3957A
:10141000D9F73EF490958095709561957F4F8F4FE9
:101420009F4F0895E89409C097FB3EF490958095EE
:10143000709561957F4F8F4F9F4F9923A9F0F92F9A
:1014400096E9BB279395F695879577956795B79518
:10145000F111F8CFFAF4BB0F11F460FF1BC06F5FFE
:101460007F4F8F4F9F4F16C0882311F096E911C010
:10147000772321F09EE8872F762F05C0662371F031
:1014800096E8862F70E060E02AF09A95660F771F45
:10149000881FDAF7880F9695879597F90895990F21
:1014A0000008550FAA0BE0E8FEEF16161706E8072E
:1014B000F907C0F012161306E407F50798F0621B4F
:1014C000730B840B950B39F40A2661F0232B242B24
:1014D000252B21F408950A2609F4A140A6958FEF43
:1014E000811D811D089557FD9058440F551F59F0D7
:1014F0005F3F71F04795880F97FB991F61F09F3F01
:1015000079F087950895121613061406551FF2CF29
:101510004695F1DF08C0161617061806991FF1CF79
:1015200086957105610508940895E894BB276627A0
:101530007727CB0197F908950E944F0A08F48FEF9F
:1015400008950E94B40A0C94250B0E94170B38F0E2
:101550000E941E0B20F0952311F00C940E0B0C949E
:10156000140B11240C94960A0E94730A70F3959F31
:10157000C1F3950F50E0551F629FF001729FBB278A
:10158000F00DB11D639FAA27F00DB11DAA1F649F26
:101590006627B00DA11D661F829F2227B00DA11DD9
:1015A000621F739FB00DA11D621F839FA00D611D5F
:1015B000221F749F3327A00D611D231F849F600D80
:1015C000211D822F762F6A2F11249F5750409AF0A9
:1015D000F1F088234AF0EE0FFF1FBB1F661F771F35
:1015E000881F91505040A9F79E3F510580F00C9400
:1015F0000E0B0C94960A5F3FE4F3983ED4F3869565
:1016000077956795B795F795E7959F5FC1F7FE2B9F
:10161000880F911D9695879597F9089597F99F677B
:1016200080E870E060E008959FEF80EC089500246A
:101630000A941616170618060906089500240A9437
:1016400012161306140605060895092E0394000CBD
:1016500011F4882352F0BB0F40F4BF2B11F460FF4C
:1016600004C06F5F7F4F8F4F9F4F0895AA1BBB1B16
:1016700051E107C0AA1FBB1FA617B70710F0A61B92
:10168000B70B881F991F5A95A9F780959095BC01B3
:10169000CD010895A1E21A2EAA1BBB1BFD010DC0AE
:1016A000AA1FBB1FEE1FFF1FA217B307E407F50712
:1016B00020F0A21BB30BE40BF50B661F771F881FEE
:1016C000991F1A9469F760957095809590959B0184
:1016D000AC01BD01CF010895EE0FFF1F0590F491FD
:1016E000E02D09940E947D0BA59F900DB49F900D55
:1016F000A49F800D911D11240895A29FB001B39F56
:10170000C001A39F700D811D1124911DB29F700D0A
:0C171000811D1124911D0895F894FFCF55
:00000001FF
