S00E00005363616E65722E73726563BA
S11300000C9434000C9446000C9446000C94460066
S11300100C9446000C9446000C9446000C94460044
S11300200C9446000C9434020C9446000C94460044
S11300300C9446000C9446000C9446000C94460024
S11300400C9446000C9446000C9451020C94460007
S11300500C9446000C9446000C9446000C94460004
S11300600C9446000C94460011241FBECFEFD8E038
S1130070DEBFCDBF21E0A0E0B1E001C01D92AE30F3
S1130080B207E1F70E94A4020C94B70B0C94000091
S11300909C01261B370B2B30310530F09B01281BAC
S11300A0390B2B30310528F4860F971F96958795C9
S11300B008956817790708F4CB010895529A539864
S11300C05B9885E085BD08955A9A8AE68A95F1F78A
S11300D000C05A9884E60E94BF034B990FC08091D8
S11300E00201882329F02FC08091020181112EC0C2
S11300F085E08A95F1F700004B9BF6CF16BC84E6A9
S11301000E94BF034B9B0FC080910201882329F0FA
S113011020C08091020181111FC085E08A95F1F70A
S113012000004B99F6CF66B570E080E090E00E9445
S1130130590A2DEC3CEC4CE85FE30E94E60A0E946D
S1130140280ACB0108958FEF9FEF08958FEF9FEF5B
S113015008958FEF9FEF08958FEF9FEF089580E24A
S11301608093B800109203010895CF93DF93CCEBF2
S1130170D0E084EA88838EE10E94BF0388818823CB
S11301809CF080910201811107C0ECEBF0E008C003
S113019080910201882321F081E08093030104C04F
S11301A0000080818823A4F7DF91CF910895CF9335
S11301B0DF938093BB00CCEBD0E084E888838EE1AE
S11301C00E94BF03888188239CF0809102018111E1
S11301D007C0ECEBF0E008C080910201882321F015
S11301E081E08093030104C0000080818823A4F788
S11301F0DF91CF910895CF93DF93CCEBD0E084ECE3
S113020088838EE10E94BF0388818823A4F08091B3
S11302100201811107C0ECEBF0E009C080910201FA
S1130220882329F081E0809303018FEF06C000004A
S1130230808188239CF78091BB00DF91CF91089542
S1130240CF93DF93CCEBD0E084E888838EE10E94E7
S1130250BF0388818823A4F080910201811107C023
S1130260ECEBF0E009C080910201882329F081E0E1
S1130270809303018FEF08C00000808188239CF7DE
S1130280109203018091BB00DF91CF9108951F93D9
S1130290CF93DF93182FD62FC42F109203010E94FF
S11302A0B500812F880F0E94D7008D2F0E94D700A0
S11302B08C2F0E94D70084E98093BC00DF91CF91FA
S11302C01F910895CF93DF93C82FD62F1092030167
S11302D00E94B500CC0F8C2F0E94D7008D2F0E9456
S11302E0D7000E94B50081E08C0F0E94D7000E94C5
S11302F0200194E99093BC00DF91CF9108950F936E
S11303001F93CF93DF93082F162FC42FD52F10924E
S113031003010E94B500802F880F0E94D700812F0F
S11303200E94D7008D2F0E94D7008C2F0E94D700E7
S113033084E98093BC00DF91CF911F910F910895C0
S1130340CF93DF93C82FD62F109203010E94B500DC
S1130350CC0F8C2F0E94D7008D2F0E94D7000E94B3
S1130360B50081E08C0F0E94D7000E94FB00C82FCB
S1130370D0E0DC2FCC270E94200194E99093BC00AC
S11303809E01282BC901DF91CF910895EF92FF922E
S11303900F931F93CF93DF93D82FC62F7A01122F79
S11303A0109203010E94B5008D2F880F0E94D70080
S11303B08C2F0E94D700112371F0E7011150012FF7
S11303C010E00F5F1F4F0E0D1F1D89910E94D70073
S11303D0C017D107D1F784E98093BC00DF91CF9196
S11303E01F910F91FF90EF900895DF92EF92FF928B
S11303F00F931F93CF93DF93C82FD62F7A01D22E5A
S1130400109203010E94B500CC0F8C2F0E94D700DC
S11304108D2F0E94D7000E94B50081E08C0F0E94AE
S1130420D7008D2D90E001971816190654F4E701B2
S11304308C010E0D1F1D0E94FB008993C017D1076C
S1130440D1F7CD2DD0E02197CE0DDF1D0E942001E4
S1130450888384E98093BC00DF91CF911F910F9131
S1130460FF90EF90DF9008951F920F920FB60F92B6
S113047011248F939F938091000190910101009723
S113048031F00197909301018093000103C081E052
S1130490809302019F918F910F900FBE0F901F9038
S11304A018951F920F920FB60F9211242F933F931A
S11304B04F935F936F937F938F939F93AF93BF9368
S11304C0EF93FF930E94EE03823B99F028F4803B64
S11304D049F0813B51F027C0843BE1F0B0F0853B0B
S11304E0F1F021C010920D011EC081E080930D0136
S11304F01AC080910D01882321F085EA0E94D70358
S113050012C086EA0E94D7030EC00E94EE038093B5
S11305100B0109C00E94EE038093040104C00E94F1
S1130520EE0380930C01FF91EF91BF91AF919F91E6
S11305308F917F916F915F914F913F912F910F9088
S11305400FBE0F901F9018952FEF3FE740E060E03B
S113055070E0CB018427582F52955827052E5695C5
S113056056955025052E569550255770082E892FDF
S1130570569507945795902D852706945795902561
S113058085272150310929F70E94C90380EA0E9476
S1130590D7030E94AF000E94770381E00E9477078F
S11305A00E945E000E94AE03789410920D01109296
S11305B00B0184EB8093040181E080930C01D0E073
S11305C0C1E0B12CCC24CA94DD24DA9480910D01CD
S11305D0882309F485C00E943A040E9464008C01B7
S11305E00F3F8FEF180721F482EC0E94D7030FC04E
S11305F0093C110530F084EC0E94D7030C2D1D2D0D
S113060006C082EA0E94D703C8010E94DF030E9449
S113061068049C01ADECBCEC0E949D0B7C01F6943B
S1130620E794F694E794F694E79480910301882381
S113063039F081EC0E94D70381E00E94770719C04A
S113064089ECE816F10450F083EC0E94D7030F3FC5
S11306508FEF180751F0EC2CFD2C0BC081EA0E949F
S1130660D703C7010E94DF0304C085EC0E94D703AF
S113067009C083EA0E94D703B701C8010E94480059
S11306800E94DF0384EA0E94D7038C2F0E94D703C1
S1130690DD2359F020910C018C2F90E0821B9109ED
S11306A0181619060CF5C21B0CC020910C01822FE0
S11306B090E08C0F911D843B910514F4C20F01C08E
S11306C0C4EB80910401C81708F0D1E080910B01BC
S11306D08C1708F0DB2D61E08C2F0E948F0376CFFE
S11306E080EA0E94D70372CFC0E0DB2DF4CF82EA08
S11306F0809380008AE18093810084B1866084B90C
S113070080E49CE99093870080938600109289008E
S11307101092880010928B0010928A000895462F40
S113072098EC899F90011124AFE8B3EE0E949D0BD1
S1130730929582958F7089279F7089278053984F4F
S1130740411105C090938900809388000895413039
S113075021F490938B0080938A00089584E0809321
S1130760B100E0E7F0E080818160808310920201B3
S113077010920101109200011092B200089510929B
S1130780020190E090930101809300011092B20065
S113079008951092C00088E98093C10086E0809398
S11307A0C2001092C50087E68093C4000895E0EC6F
S11307B0F0E0908195FFFDCF8093C6000895E0ECB2
S11307C0F0E0208125FFFDCF9093C600E0ECF0E03F
S11307D0908195FFFDCF8093C6000895E0ECF0E092
S11307E080818823ECF78091C6000895CF92DF9230
S11307F0EF92FF926B017C0120E030E0A9010E949E
S1130800230A8823DCF028EB3EEF4FEF53E4C701C3
S1130810B6010E94E10A18169CF020E030E040E0A6
S113082053E4C701B6010E94E60A0E94280AAB01FC
S113083064E489E20E947F0181E003C080E001C09A
S113084080E0FF90EF90DF90CF900895811107C072
S113085060E589E20E9462018F5F880F089581300C
S113086039F460E789E20E9462018F5F880F08957E
S11308708FEF089541E060E889E20E94470180918A
S11308800301811124C041E06FEF89E20E94470116
S113089040E060E089E20E9447014091090161E97A
S11308A089E20E94470141E060E089E20E94470139
S11308B040E06FEF89E20E94470140E060E889E28E
S11308C00E94470141E060E089E20E9447010895E7
S11308D0CF93DF9360E089E20E94620180FF07C04A
S11308E0809103018823B1F38FEF9FEF1EC08091A5
S11308F00301811118C063E189E20E9462018770DB
S113090021F4809103018823B1F36EE189E20E940E
S1130910A001D82FC92F41E06BE089E20E94470172
S11309208D2F9C2F02C08FEF9FEFDF91CF91089501
S11309300F931F93CF93DF938C01EB0141E060E8A9
S113094089E20E94470141E06FEF89E20E9447017A
S113095040E060E089E20E94470146E06FEF89E2EF
S11309600E94470163E889E20E946201482F4460C3
S113097063E889E20E94470147E06FEF89E20E9441
S1130980470141E061E889E20E94470141E060E8F3
S113099089E20E9447014BE664E989E20E9447012B
S11309A040E063E889E20E94470163E889E20E942B
S11309B06201811104C0809103018823B1F341E0F5
S11309C063E889E20E94470162E989E20E946201C8
S11309D0982F9F77F8019083881F8827881F888322
S11309E040E061E889E20E94470146E06FEF89E256
S11309F00E94470163E889E20E946201482F4B7F0D
S1130A0063E889E20E94470141E06FEF89E20E94B6
S1130A10470141E060E089E20E94470140E06FEF56
S1130A2089E20E94470140E060E889E20E944701B0
S1130A3081E0DF91CF911F910F910895CF93DF93C0
S1130A40EC0161E089E20E94620184FB992790F93C
S1130A50988383FB992790F99A8382FB992790F9CD
S1130A60998386FB992790F99B83881F8827881F81
S1130A708C83DF91CF9108959C013327A90102C093
S1130A80440F551F9A95E2F7CA01019608950F93F2
S1130A901F93611571058105910521F1AB01BC011D
S1130AA04150510961097109DB01CA018827892B69
S1130AB08A2B8B2B79F080E090E07695679557959B
S1130AC0479501968A019B010027012B022B032BDA
S1130AD0A1F702C080E090E0982F88275527842B47
S1130AE0952B02C080E090E01F910F910895CF9262
S1130AF0DF92EF92FF92CF93DF93EC01A62FB0E049
S1130B0020E03FE24AE350E00E94AC0B6C507E4F81
S1130B108F4F9F4F0F2EF8EECF2EF3E0DF2EE12CF8
S1130B20F12CF02DA70196010E947B0BDE010E949F
S1130B30AC0B6C507E4F8F4F9F4FA70196010E94C4
S1130B407B0BCA01B901DF91CF91FF90EF90DF9049
S1130B50CF9008950F931F93CF93DF938C01EB01F4
S1130B6080E00E94260490E09983888366E489E209
S1130B700E94620190E001969D838C8368810E94AB
S1130B8077056A877B878C879D8761E589E20E9468
S1130B90A0010E943C059F838E8368810E94770593
S1130BA06E877F87888B998B81E00E94260490E072
S1130BB09B838A8361E789E20E94A0010E943C052D
S1130BC099878887F8012381222331F02E813F8180
S1130BD0821B930B998788876A81888599850E94EF
S1130BE077056A8B7B8B8C8B9D8BDF91CF911F91CB
S1130BF00F9108950F931F93CF93DF93CDB7DEB773
S1130C006B970FB6F894DEBF0FBECDBFCE01019631
S1130C100E941E05BE016A5F7F4FCE0101960E94AD
S1130C20AA058981882359F088899989AA89BB8969
S1130C30BC01CD016C57724F8F4F9F4F04C066E3C8
S1130C407BE080E090E02B81222389F008891989D8
S1130C502A893B890E541D4F2F4F3F4F000F111F00
S1130C60221F331F600F711F821F931F0FC02A8121
S1130C70222361F0088919892A893B890C561D4F62
S1130C802F4F3F4F600F711F821F931F2C81222310
S1130C9061F00C891D892E893F890C561D4F2F4FF9
S1130CA03F4F600F711F821F931F2D81222361F01C
S1130CB0088D198D2A8D3B8D0A5D1D4F2F4F3F4F97
S1130CC0600F711F821F931F6093050170930601CB
S1130CD080930701909308016B960FB6F894DEBFDA
S1130CE00FBECDBFDF91CF911F910F9108958F92C9
S1130CF09F92AF92BF92CF92DF92EF92FF924B01FD
S1130D005C01A42FB0E020E03FE24AE350E00E94FF
S1130D10AC0B6B017C0124EFC20E21E0D21EE11C5E
S1130D20F11CA8EEB3E0A50194010E94AC0B4B01A9
S1130D305C01C701B60120ED37E040E050E00E94BD
S1130D407B0B820E931EA41EB51EC701B60128EEAE
S1130D5033E040E050E00E947B0BC501B4010E94E7
S1130D607B0BCA01B901FF90EF90DF90CF90BF9049
S1130D70AF909F908F900895CF92DF92EF92FF9261
S1130D801F93CF93DF93CDB7DEB76B970FB6F8946D
S1130D90DEBF0FBECDBF6B017C01CE0101960E9468
S1130DA01E05BE016A5F7F4FCE0101960E94AA050F
S1130DB08981882349F088899989AA89BB898C57B4
S1130DC0924FAF4FBF4F04C086E39BE0A0E0B0E07A
S1130DD02B81222389F0488959896A897B894E5459
S1130DE05D4F6F4F7F4F440F551F661F771F840F52
S1130DF0951FA61FB71F0FC02A81222361F04889BF
S1130E0059896A897B894C565D4F6F4F7F4F840F98
S1130E10951FA61FB71F1C81112361F04C895D89A2
S1130E206E897F894C565D4F6F4F7F4F840F951F9E
S1130E30A61FB71F2D81222369F18A5D9D4FAF4FF5
S1130E40BF4FC816D906EA06FB0630F1A701960182
S1130E50281B390B4A0B5B0BCA01B90148850E9458
S1130E607706112331F02C853D85620F731F811D98
S1130E70911D0E944705AC0161E789E20E947F0150
S1130E80C0920501D0920601E0920701F092080198
S1130E9081E003C081E001C080E06B960FB6F89456
S1130EA0DEBF0FBECDBFDF91CF911F91FF90EF90BA
S1130EB0DF90CF900895482F416060E089E20E945E
S1130EC0470163E189E20E946201877021F4809105
S1130ED003018823B1F341E06BE089E20E944701FA
S1130EE040E060E089E20E94470181E00895CF93E9
S1130EF0DF93CDB7DEB728970FB6F894DEBF0FBEE9
S1130F00CDBF882351F069E889E20E946201482F2D
S1130F10416069E889E20E94470140E068E889E2AB
S1130F200E94470180910301811183C241E060E87E
S1130F3089E20E94470141E06FEF89E20E94470184
S1130F4040E060E089E20E94470161E989E20E9491
S1130F5062018093090141E060E089E20E94470157
S1130F6040E06FEF89E20E94470140E060E889E2D7
S1130F700E94470160E689E20E946201482F4261B3
S1130F8060E689E20E94470160E070E080E89EE349
S1130F900E94F6034FEF61E089E20E944701BE011F
S1130FA06E5F7F4FCE0101960E949804882309F456
S1130FB041C226E0AE014D5F5F4F60EB89E20E94C3
S1130FC0F50141E06FEF89E20E94470140E06FE4E0
S1130FD089E20E9447014CE26EE489E20E944701E3
S1130FE040E06FEF89E20E94470144EB66EB89E23F
S1130FF00E9447018A81811102C060E001C06CE057
S1131000A98180E070E041E050E0861710F0A7135A
S113101018C0982F969596959695E3E0F0E0EC0F1E
S1131020FD1FE90FF11D982F97709A0102C0220F3E
S1131030331F9A95E2F7922F909520819223908303
S113104015C0982F969596959695E3E0F0E0EC0FF1
S1131050FD1FE90FF11D208130E0982F977002C029
S1131060359527959A95E2F720FD7F5F8F5F803352
S113107061F626E0AE014D5F5F4F60EB89E20E94AE
S1131080C60141E06FEF89E20E94470140E060E061
S113109089E20E94470140E06FEF89E20E94470124
S11310A040E069E089E20E94470140E060E189E2B2
S11310B00E94470140E061E189E20E94470141E06A
S11310C064E289E20E9447014FEF65E289E20E94EF
S11310D0470140E065E789E20E94470141E06FEF84
S11310E089E20E9447014CE26EE489E20E944701D2
S11310F040E068E489E20E94470140E260E389E25B
S11311000E94470140E06FEF89E20E94470149E0F5
S113111060E389E20E94470140E064E589E20E94BD
S1131120470144E061E389E20E94470143E062E34E
S113113089E20E94470143E860E489E20E94470192
S113114045E266E489E20E94470140E060E689E204
S11311500E94470140E067E289E20E94470146E0BD
S113116060E589E20E94470140E061E589E20E946E
S1131170470146E962E589E20E94470148E066E5E5
S113118089E20E94470140E367E589E20E94470142
S113119040E061E689E20E94470140E062E689E2BC
S11311A00E94470140E064E689E20E94470140E072
S11311B065E689E20E94470140EA66E689E20E9408
S11311C0470141E06FEF89E20E94470142E362E296
S11311D089E20E94470144E167E489E20E944701F1
S11311E04FEF69E489E20E94470140E06AE489E242
S11311F00E94470140E06FEF89E20E9447014AE004
S11312006AE789E20E94470140E06BE789E20E94B5
S1131210470141E268E789E20E94470141E06FEF3C
S113122089E20E94470144E363E289E20E944701A4
S113123040E062E489E20E9447014FEF64E489E2FE
S11312400E94470146E265E489E20E94470145E0C5
S113125066E489E20E94470140E460E489E20E9476
S1131260470146E06EE089E20E9447014AE160E2FC
S113127089E20E94470140E463E489E20E94470155
S113128040E06FEF89E20E94470143E064E389E2B2
S11312900E94470144E465E389E20E94470141E07A
S11312A06FEF89E20E94470144E061E389E20E9412
S11312B0470149E06BE489E20E94470145E06CE4A0
S11312C089E20E94470144E06DE489E20E944701FB
S11312D040E06FEF89E20E94470140E064E489E264
S11312E00E94470140E265E489E20E94470148E028
S11312F067E489E20E94470148E268E489E20E94C7
S1131300470140E067E689E20E94470144E060E764
S113131089E20E94470141E061E789E20E944701B6
S11313204EEF62E789E20E94470140E066E789E206
S11313300E94470140E067E789E20E94470141E0DB
S11313406FEF89E20E94470141E06DE089E20E946B
S1131350470140E06FEF89E20E94470141E060E805
S113136089E20E94470148EF61E089E20E94470157
S113137041E06FEF89E20E94470141E06EE889E2B3
S11313800E94470141E060E089E20E94470140E099
S11313906FEF89E20E94470140E060E889E20E9421
S11313A0470144E06AE089E20E94470164E889E277
S11313B00E946201482F4F7E64E889E20E9447013F
S11313C041E06BE089E20E9447010E94FA056093C4
S11313D0050170930601809307019093080148EE7C
S11313E061E089E20E944701609105017091060164
S11313F080910701909108010E94BC0641E061E0E0
S113140089E20E94470180E40E945B07882391F0EF
S113141042E061E089E20E94470180E00E945B07AC
S1131420882341F048EE61E089E20E94470181E0AF
S113143001C080E028960FB6F894DEBF0FBECDBF82
S1131440DF91CF9108950E94940A08F481E00895F1
S11314500E94C00A88F09F5798F0B92F9927B75176
S1131460B0F0E1F0660F771F881F991F1AF0BA9544
S1131470C9F714C0B13091F00E94DA0AB1E00895BE
S11314800C94DA0A672F782F8827B85F39F0B93FB0
S1131490CCF3869577956795B395D9F73EF49095F7
S11314A08095709561957F4F8F4F9F4F0895E89475
S11314B009C097FB3EF490958095709561957F4F98
S11314C08F4F9F4F9923A9F0F92F96E9BB27939546
S11314D0F695879577956795B795F111F8CFFAF456
S11314E0BB0F11F460FF1BC06F5F7F4F8F4F9F4F87
S11314F016C0882311F096E911C0772321F09EE8E5
S1131500872F762F05C0662371F096E8862F70E04A
S113151060E02AF09A95660F771F881FDAF7880F24
S11315209695879597F90895990F0008550FAA0B7A
S1131530E0E8FEEF16161706E807F907C0F01216E2
S11315401306E407F50798F0621B730B840B950BE5
S113155039F40A2661F0232B242B252B21F408953A
S11315600A2609F4A140A6958FEF811D811D0895D7
S113157057FD9058440F551F59F05F3F71F0479540
S1131580880F97FB991F61F09F3F79F08795089525
S1131590121613061406551FF2CF4695F1DF08C044
S11315A0161617061806991FF1CF86957105610561
S11315B008940895E894BB2766277727CB0197F909
S11315C008950E94940A08F48FEF08950E94F90A7E
S11315D00C946A0B0E945C0B38F00E94630B20F0A1
S11315E0952311F00C94530B0C94590B11240C9467
S11315F0DB0A0E94B80A70F3959FC1F3950F50E07F
S1131600551F629FF001729FBB27F00DB11D639FB0
S1131610AA27F00DB11DAA1F649F6627B00DA11D56
S1131620661F829F2227B00DA11D621F739FB00DFC
S1131630A11D621F839FA00D611D221F749F33276C
S1131640A00D611D231F849F600D211D822F762F05
S11316506A2F11249F5750409AF0F1F088234AF0E2
S1131660EE0FFF1FBB1F661F771F881F915050404E
S1131670A9F79E3F510580F00C94530B0C94DB0AA0
S11316805F3FE4F3983ED4F3869577956795B795D5
S1131690F795E7959F5FC1F7FE2B880F911D9695EF
S11316A0879597F9089597F99F6780E870E060E05F
S11316B008959FEF80EC089500240A9416161706E7
S11316C018060906089500240A941216130614062F
S11316D005060895092E0394000C11F4882352F092
S11316E0BB0F40F4BF2B11F460FF04C06F5F7F4F4A
S11316F08F4F9F4F0895A1E21A2EAA1BBB1BFD0119
S11317000DC0AA1FBB1FEE1FFF1FA217B307E407DC
S1131710F50720F0A21BB30BE40BF50B661F771F34
S1131720881F991F1A9469F7609570958095909514
S11317309B01AC01BD01CF010895A29FB001B39FED
S1131740C001A39F700D811D1124911DB29F700DC6
S1131750811D1124911D08950E949D0BA59F900D3C
S1131760B49F900DA49F800D911D11240895F894A9
S1051770FFCFA5
S9030000FC
